S010000070726F6A656374332E73726563EA
S11300000C942A000C9447000C9447000C9447006D
S11300100C9447000C9447000C9447000C94470040
S11300200C9447000C9447000C9447000C94470030
S11300300C9447000C9447000C9447000C94470020
S11300400C9447000C9447000C9447000C94470010
S11300500C94470011241FBECFE5D8E0DEBFCDBF0E
S113006010E0A0E6B0E0EEE4FAE002C005900D92E4
S1130070AA38B107D9F720E0AAE8B0E001C01D9280
S1130080A239B207E1F70E94C4020C9425050C942E
S1130090000061E08EE10E946C0361E08FE10E9448
S11300A06C0361E080E20E946C0361E081E20E94E3
S11300B06C0362E082E20E946C0362E083E20E94CD
S11300C06C0362E084E20E946C0362E085E20E94B9
S11300D06C036FEF83E00E9498040895DF92EF921F
S11300E0FF920F931F93CF93DF930F2EF1E6EF2E22
S11300F0F0E0FF2EF02DDD24DA94DEE162E08D2FB6
S11301000E9402048701C2E28C2F0E94AB04811179
S113011012C081EE94E00197F1F700C000008C2F2B
S11301200E94AB04811107C08C2F0E94AB0488236A
S1130130D9F3F801D080CF5F0F5F1F4FC63221F78C
S113014061E08D2F0E940204DF5FF4E0EF0EF11CEA
S1130150D232A1F68D2DDF91CF911F910F91FF9097
S1130160EF90DF90089561E086E10E94020483E04D
S11301708A95F1F7000062E086E10E94020483EFB1
S113018091E00197F1F700C000000895CF93C82FC4
S113019062E084E10E940204CC232CF461E081E15A
S11301A00E94020404C062E081E10E940204C6FFCE
S11301B005C061E080E10E94020404C062E080E1C5
S11301C00E940204C5FF05C061E08FE00E940204A2
S11301D004C062E08FE00E940204C4FF05C061E035
S11301E08EE00E94020404C062E08EE00E940204D9
S11301F00E94B300C3FF05C061E081E10E940204D4
S113020004C062E081E10E940204C2FF05C061E013
S113021080E10E94020404C062E080E10E940204C2
S1130220C1FF05C061E08FE00E94020404C062E0E7
S11302308FE00E940204C0FF05C061E08EE00E94CE
S1130240020404C062E08EE00E9402040E94B30033
S1130250CF91089561E08EE00E946C0361E08FE02D
S11302600E946C0361E080E10E946C0361E081E123
S11302700E946C0361E084E10E946C0361E086E10A
S11302800E946C0361E085E10E946C0362E085E1F9
S11302900E94020487EA91E60197F1F700C000008A
S11302A082E00E94C60088E20E94C6008EE00E949E
S11302B0C60081E00E94C6000895813019F08230A2
S11302C031F008958FE7860F0E94C60008958FEBE2
S11302D0860F0E94C6000895CF93C82F61E084E181
S11302E00E940204CC232CF461E081E10E94020408
S11302F004C062E081E10E940204C6FF05C061E01F
S113030080E10E94020404C062E080E10E940204D1
S1130310C5FF05C061E08FE00E94020404C062E0F2
S11303208FE00E940204C4FF05C061E08EE00E94D9
S1130330020404C062E08EE00E9402040E94B30042
S1130340C3FF05C061E081E10E94020404C062E0D1
S113035081E10E940204C2FF05C061E080E10E94C5
S1130360020404C062E080E10E940204C1FF05C0EF
S113037061E08FE00E94020404C062E08FE00E940A
S11303800204C0FF05C061E08EE00E94020404C0C4
S113039062E08EE00E9402040E94B300CF910895AF
S11303A0CF93C82F862F642F0E945D018C2F0E944B
S11303B06C01CF910895CF93DF93EC01888188235A
S11303C031F021960E946C0189918111FBCFDF915C
S11303D0CF910895CF93DF93EC01862F642F0E9471
S11303E05D01CE010E94DB01DF91CF9108958F92D0
S11303F09F92AF92BF92EF92FF921F93CF93DF939E
S1130400CDB7DEB72A970FB6F894DEBF0FBECDBFC7
S1130410611571058105910521F480E30E946C0149
S11304202AC010E00F2EFAE08F2E912CA12CB12CB3
S1130430F02DEE24E394F12CEC0EFD1EE10EF11CE4
S1130440A50194010E940305605DF7016083622F9A
S1130450732F842F952F1F5F6115710581059105F9
S113046041F7112341F0FE01E10FF11D80810E944B
S11304706C011150C1F72A960FB6F894DEBF0FBE77
S1130480CDBFDF91CF911F91FF90EF90BF90AF90C0
S11304909F908F900895CF92DF92EF92FF926B011D
S11304A07C01842F622F0E945D01C701B6010E9466
S11304B0F701FF90EF90DF90CF9008950F93CF93C3
S11304C0DF93EC01A881B0E0EB01E881F0E0423079
S11304D0C8F0EC012196425050E04E5F5F4F480F48
S11304E0591FCD01880F991FAA0FBB1FAA0FBB1F4D
S11304F0AA0FBB1FA80FB91F9991A90FB11DC4174B
S1130500D50779F72230C8F0EB012196225030E06C
S11305102E5F3F4F260F371FBF01660F771FEE0F69
S1130520FF1FEE0FFF1FEE0FFF1FE60FF71F89914E
S1130530E80FF11DC217D30779F70D3269F018F4EB
S11305400B3231F01BC00F3299F0083749F016C056
S1130550CD018E0F9F1F14C0CD018E1B9F0B10C0A9
S1130560AE9FC001AF9F900DBE9F900D112408C097
S1130570CD01BF010E94EF04CB0102C080E090E0F6
S1130580DF91CF910F9108950E9449000E942A01A2
S113059081E00E94C60041E061E081E790E00E94B2
S11305A0EA01C8E04C2F61E08EE20E94D00183ECA6
S11305B099E00197F1F700C00000CF5FCB3091F7CD
S11305C08FE493EC0197F1F700C0000081E00E94F2
S11305D0C60041E061E089E790E00E94EA0141E061
S11305E062E082E890E00E94EA019FE72AE186E067
S11305F0915020408040E1F700C0000081E00E945B
S1130600C600D0E00E946E0080936000000000915C
S113061060000F3FB9F3802F8B7F8B3221F00D32B6
S113062011F0083749F4C1E0CD0F4C2F61E0802F61
S11306300E94D00110E011C0033401F3ED2FF0E06B
S1130640E257FF4F0083DF5F602F70E080E090E0AF
S11306502D2F41E00E944B02D5CF0E946E00809363
S113066060000000609160006F3FB9F36D3311F5D5
S113067041E04C0F61E08DE30E94D001212F4D2F0A
S11306806AE870E08EE890E00E945E02BC0180E0BF
S113069090E021E042E00E944B029FE52AEE80E0D8
S11306A0915020408040E1F700C0000081E00E94AA
S11306B0C600A4CF633409F4A1CFE12FF0E0E657DC
S11306C0FF4F6083CF5F1F5F70E080E090E02C2FCE
S11306D041E00E944B02C1CF9DEC899F912D1124D2
S11306E0969596959695392F330F232F220F220F27
S11306F0230F821B613021F0623009F440C0089559
S11307009230B1F018F4913031F008959330E9F05B
S1130710943041F108954AB321E030E0B90102C0B8
S1130720660F771F8A95E2F7CB01842B8ABB089565
S113073047B321E030E0B90102C0660F771F8A9504
S1130740E2F7CB01842B87BB089544B321E030E06A
S1130750B90102C0660F771F8A95E2F7CB01842B9B
S113076084BB089541B321E030E0B90102C0660FB3
S1130770771F8A95E2F7CB01842B81BB08959230D1
S1130780B9F018F4913031F008959330F9F09430C1
S113079059F108954AB321E030E0B90102C0660F6F
S11307A0771F8A95E2F7CB01809584238ABB08954D
S11307B047B321E030E0B90102C0660F771F8A9584
S11307C0E2F7CB018095842387BB089544B321E0ED
S11307D030E0B90102C0660F771F8A95E2F7CB01BA
S11307E08095842384BB089541B321E030E0B901AE
S11307F002C0660F771F8A95E2F7CB0180958423A8
S113080081BB08959DEC899F912D11249695969511
S11308109695392F330F232F220F220F230F821B7C
S1130820613021F0623009F440C008959230B1F093
S113083018F4913031F008959330E9F0943041F197
S113084008954BB321E030E0B90102C0660F771F71
S11308508A95E2F7CB01842B8BBB089548B321E042
S113086030E0B90102C0660F771F8A95E2F7CB0129
S1130870842B88BB089545B321E030E0B90102C060
S1130880660F771F8A95E2F7CB01842B85BB089509
S113089042B321E030E0B90102C0660F771F8A95A8
S11308A0E2F7CB01842B82BB08959230B9F018F49F
S11308B0913031F008959330F9F0943059F108955E
S11308C04BB321E030E0B90102C0660F771F8A956F
S11308D0E2F7CB01809584238BBB089548B321E0D4
S11308E030E0B90102C0660F771F8A95E2F7CB01A9
S11308F08095842388BB089545B321E030E0B90195
S113090002C0660F771F8A95E2F7CB018095842396
S113091085BB089542B321E030E0B90102C0660FFF
S1130920771F8A95E2F7CB018095842382BB0895D3
S1130930823059F018F4813031F00895833039F061
S1130940843039F008956BBB089568BB089565BB86
S1130950089562BB08959DEC899F912D1124292F40
S1130960269526952695220F322F330F330F230F0A
S1130970821B282F892F869586958695823091F043
S113098018F4813031F029C08330A9F08430E1F0CB
S113099024C089B390E002C0959587952A95E2F723
S11309A08170089586B390E002C0959587952A9545
S11309B0E2F78170089583B390E002C0959587951E
S11309C02A95E2F78170089580B390E002C095956E
S11309D087952A95E2F78170089580E00895AA1B0F
S11309E0BB1B51E107C0AA1FBB1FA617B70710F016
S11309F0A61BB70B881F991F5A95A9F78095909548
S1130A00BC01CD010895A1E21A2EAA1BBB1BFD0156
S1130A100DC0AA1FBB1FEE1FFF1FA217B307E407D9
S1130A20F50720F0A21BB30BE40BF50B661F771F31
S1130A30881F991F1A9469F7609570958095909511
S1110A409B01AC01BD01CF010895F894FFCFD6
S1130A4EFF0708092F040506780102032D43003D14
S1130A5E2B4C6F6164696E670057656C636F6D65CF
S10D0A6E21005465616D203136004B
S9030000FC
